:100000000C94E2000C940A010C940A010C940A016D
:100010000C940A010C940A010C940A010C940A0134
:100020000C940A010C940A010C94600A0C942906A1
:100030000C940A010C940A010C940A010C940A0114
:100040000C940A010C940A010C940A010C940A0104
:100050000C940A010C940A010C940A010C94C90333
:100060000C940A010C940A010C940A010C940A01E4
:100070000C940A010C940A010C940A010C940A01D4
:100080000C940A010C940A010C940A010C940A01C4
:100090000C940A010C940A010C940A010C940A01B4
:1000A0000C940A010C9446040C940A0158015B015B
:1000B0004A014E0154017C017C017C015F01630116
:1000C00067016D0171017C017701000000002300D0
:1000D000260029002C002F000000000200090F005C
:1000E00000030401000C00000000000000000000FC
:1000F00000000000000000080B00020202010009DD
:100100000400000102020000052400100105240182
:1001100001010424020605240600010705810310DD
:10012000004009040100020A000000070502024025
:1001300000000705830240000004030904120100C7
:1001400002EF02014041234180000101020301410D
:10015000726475696E6F204C4C430041726475691E
:100160006E6F2059756E0000000000250028002BDE
:10017000002E00310000000000240027002A002D7E
:100180000030000404040404030405020202020413
:100190000302020202060606060606040402020222
:1001A0000404040802011040804010204080408078
:1001B00008020401804020100201108010204040FD
:1001C0002000620F11241FBECFEFDAE0DEBFCDBFEB
:1001D00026E0A2E8B3E001C01D92AA32B207E1F71F
:1001E00013E0A0E0B1E0E6E5F4E202C005900D9274
:1001F000A238B107D9F710E0C2EED0E004C02197D1
:10020000FE010E941F10C13ED107C9F70E94E00AFB
:100210000C9429120C940000CF93DF931F92CDB75A
:10022000DEB76983DC01ED91FC910280F381E02D62
:1002300041E050E0BE016F5F7F4F09950F90DF9165
:10024000CF910895FC018485958597FD0BC09FB7DC
:10025000F89482E08093E9008091F2009FBF90E0E3
:10026000019608959FB7F89482E08093E900809109
:10027000F2009FBF90E00895089580E090E0089517
:1002800090E0FC013197EF30F105B0F5EA5AFF4FED
:100290000C941F10809180008F7703C080918000A4
:1002A0008F7D80938000089580918000877FF9CFB3
:1002B00084B58F7702C084B58F7D84BD0895809109
:1002C00090008F7707C0809190008F7D03C0809150
:1002D0009000877F8093900008958091C0008F7771
:1002E00003C08091C0008F7D8093C00008958091ED
:1002F000C200877F8093C20008953FB7F894809131
:10030000590490915A04A0915B04B0915C0426B505
:10031000A89B05C02F3F19F00196A11DB11D3FBF3D
:10032000BA2FA92F982F8827820F911DA11DB11DCB
:10033000BC01CD0142E0660F771F881F991F4A95C7
:10034000D1F708958F929F92AF92BF92CF92DF9292
:10035000EF92FF926B017C010E947D014B015C01D9
:10036000C114D104E104F104F1F00E947D01DC012B
:10037000CB0188199909AA09BB09883E9340A105B8
:10038000B10570F321E0C21AD108E108F10888EE46
:10039000880E83E0981EA11CB11CC114D104E10495
:1003A000F10419F7DDCFFF90EF90DF90CF90BF9071
:1003B000AF909F908F9008952F923F924F925F92AF
:1003C0006F927F928F929F92AF92BF92CF92DF9265
:1003D000EF92FF920F931F93CF93DF931C015B016A
:1003E0003A018C017A0180E2482E8EE4582EC70132
:1003F000861997098A159B05ECF5E801812C912C4B
:10040000C12CD12C80E091E0998388839FE0C916AC
:10041000D10419F45B824A821CC0D701EC91EE0F23
:10042000FF0BE15CFD4F0190F081E02DE80DF91D1F
:100430008081882329F08AE293E09B838A8309C024
:10044000ABE2B7E0BB83AA8360E48CE695E00E9450
:100450000C01BFEFCB1ADB0A249680E1880E911CB9
:1004600090E1C916D10471F6AFEFEA1AFA0A005CFE
:100470001F4FBDCFC101DF91CF911F910F91FF9011
:10048000EF90DF90CF90BF90AF909F908F907F9034
:100490006F905F904F903F902F9008950C94670954
:1004A000CF93DF93CDB7DEB7C054D3400FB6F894E7
:1004B000DEBF0FBECDBFECE0F1E0CB5BDC4F88814F
:1004C000C554D3408283C95BDC4F8881C754D34075
:1004D0008383C75BDC4F8881C954D3408483C55B69
:1004E000DC4F8881CB54D3408583C35BDC4F88814C
:1004F000CD54D3408683C15BDC4F8881CF54D34039
:100500008783CF5ADC4F8881C155D3408087CD5A2D
:10051000DC4F8881C355D3408187CB5ADC4F88811B
:10052000C555D3408287AF016DE070E0CE010196E2
:100530000E94DC01FC01808191819A83898360EAB9
:1005400071E0CE0101960E94C608C05CDC4F0FB678
:10055000F894DEBF0FBECDBFDF91CF9108958F928B
:100560009F92AF92BF92CF92DF92EF92FF920F9342
:100570001F93CF93DF936C017B018A0180910B0164
:10058000882309F45CC080916B05882309F457C067
:100590008091680580FF05C08091E00082608093B3
:1005A000E000E801B12C8AEFA82E93E0892E2AE31F
:1005B000922E209711F4BB20D9F10E94D409811109
:1005C0000AC0AA94AA20D9F161E070E080E090E02E
:1005D0000E94A201EECF282F30E0C217D3070CF4FF
:1005E0008C2F9FB7F8948092E9002091E80025FFB6
:1005F0001DC0282F30E0C21BD30BF701815020F023
:1006000041914093F100FACFE20EF31EBB2019F0A6
:100610009092E8000AC08091E80085FD07C09092A2
:10062000E800BB24B394209709F0B12C9FBFC1CF41
:100630005D9884E6809369051016110644F081E008
:1006400090E0F6019383828380E090E001C0C801CE
:10065000DF91CF911F910F91FF90EF90DF90CF909E
:10066000BF90AF909F908F9008950E94D40990E022
:1006700008950F931F93CF93DF931F92CDB7DEB7EB
:100680008C01FC018485958597FF0EC0CE010196F3
:100690000E94A609019719F4898190E002C08FEFAA
:1006A0009FEFF80195878487F801848595850F90E1
:1006B000DF91CF911F910F910895CF93DF931F92F8
:1006C000CDB7DEB7FC018485958597FD05C02FEF7A
:1006D0003FEF358724870BC0CE0101960E94A60903
:1006E000019719F4898190E002C08FEF9FEF0F907E
:1006F000DF91CF9108951F93CF93DF93282F30E0A0
:10070000F901E852FF4F8491F901EE55FE4FD49163
:10071000F901ED57FE4FC491CC23C1F0162F811182
:100720000E944001EC2FF0E0EE0FFF1FE959FE4F51
:10073000A591B4919FB7F894111104C08C91D095F4
:10074000D82302C0EC91DE2BDC939FBFDF91CF91C9
:100750001F910895CF93DF93EC0161E08DE00E943B
:100760007B03BE01DD0F880B990B0E94A20160E0A4
:100770008DE0DF91CF910C947B032FB7F8946091BB
:1007800055047091560480915704909158042FBFDE
:1007900008951F920F920FB60F9211242F933F933B
:1007A0008F939F93AF93BF9380915504909156047C
:1007B000A0915704B09158043091540423E0230FC2
:1007C0002D3720F40196A11DB11D05C026E8230F89
:1007D0000296A11DB11D209354048093550490935B
:1007E0005604A0935704B0935804809159049091F3
:1007F0005A04A0915B04B0915C040196A11DB11D47
:100800008093590490935A04A0935B04B0935C04C2
:10081000BF91AF919F918F913F912F910F900FBEFC
:100820000F901F9018958F929F92AF92BF92CF9288
:10083000DF92EF92FF926B017C010E947D014B01E0
:100840005C0184E0C81AD108E108F108C80CD91C81
:10085000EA1CFB1CC814D904EA04FB0438F40E9407
:100860007D0186169706A806B906C8F30E947D0189
:100870006C157D058E059F05C8F3FF90EF90DF9006
:10088000CF90BF90AF909F908F9008951F920F923E
:100890000FB60F9211242F933F934F935F936F9353
:1008A0007F938F939F93AF93BF93CF93DF93EF93F8
:1008B000FF932091830330E0F901E852FF4F8491C8
:1008C000F901EE55FE4FD491F901ED57FE4FC49159
:1008D000CC2379F081110E944001EC2FF0E0EE0F63
:1008E000FF1FE653FF4FA591B491EC91ED2381E0FA
:1008F00009F480E020918703309188032F5F3F4FF8
:10090000309388032093870390918603953618F0DF
:1009100096E090938203909182039430C9F128F479
:10092000923069F09330D1F05EC0953009F451C037
:10093000963009F058C091E09093530451C0811152
:1009400052C020918703309188032436310508F482
:1009500042C010925304109286031CC0813009F0EB
:1009600042C0E091860391E09E0F90938603F0E0F1
:100970002091870330918803EE0FFF1FEE57FC4F45
:1009800030872783109288031092870394E029C050
:10099000811117C0E091860391E09E0F909386032A
:1009A000F0E02091870330918803EE0FFF1FEE5790
:1009B000FC4F30872783109288031092870393E0BF
:1009C00010C020918703309188032536310558F0F7
:1009D00007C0811108C0109288031092870303C0DA
:1009E00095E090938203909185039923B9F081114A
:1009F0000AC080918403882321F08091840361E000
:100A000009C02D9A0BC080918403882331F0809116
:100A1000840360E00E947B0301C02D98FF91EF9159
:100A2000DF91CF91BF91AF919F918F917F916F9106
:100A30005F914F913F912F910F900FBE0F901F909C
:100A400018956115710579F0FB0101900020E9F717
:100A50003197AF01461B570BDC01ED91FC910280F1
:100A6000F381E02D099480E090E0089540916505C0
:100A70005091660520916305309164054217530734
:100A8000B4F49091E8009570E1F39091E80092FD44
:100A900019C08093F10080916505909166050196DB
:100AA0008F739927892B19F48EEF8093E80080913A
:100AB000650590916605019690936605809365059E
:100AC00081E0089580E00895DF92EF92FF920F9306
:100AD0001F93CF93DF93D82EF92EE42E062F10E02C
:100AE000C8010196880F0E94360583E00E943605F2
:100AF000CD2DDF2D0C0F1D1FC017D10789F0E7FE8C
:100B000003C0FE01849101C088810E943605F82E41
:100B100080E00E9436058F2121968111EDCF01C022
:100B200081E0DF91CF911F910F91FF90EF90DF90C7
:100B30000895DF92EF92FF920F931F93CF93DF936D
:100B4000D82E8A017B01E40EF51EEB01CE15DF05E0
:100B500071F0D7FE03C0FE01849101C088810E941C
:100B6000360521968111F2CF8FEF9FEF01C0C801AA
:100B7000DF91CF911F910F91FF90EF90DF9008953B
:100B8000615030F02091F100FC0120830196F8CFF4
:100B9000289884E680936A050895CF92DF92EF92B9
:100BA000FF920F931F93CF93DF936C017A018B0118
:100BB000C0E0D0E0CE15DF0581F0D8016D918D0148
:100BC000D601ED91FC910190F081E02DC6010995CF
:100BD000892B11F02196EECF7E01C701DF91CF91D5
:100BE0001F910F91FF90EF90DF90CF9008950F939A
:100BF0001F93CF93DF931F92CDB7DEB782E0898337
:100C000042E450E067EF70E080E80E9499050E949E
:100C1000E509DC0112960D911C9113970115110540
:100C200089F0D801ED91FC910280F381E02DBE01A5
:100C30006F5F7F4FC801099597FD04C0F8010085DB
:100C40001185ECCF89810F90DF91CF911F910F918A
:100C500008951F920F920FB60F921124CF92DF9238
:100C6000EF92FF920F931F932F933F934F935F93B6
:100C70006F937F938F939F93AF93BF93EF93FF9364
:100C8000CF93DF93CDB7DEB76C97DEBFCDBF1092A9
:100C9000E9008091E80083FFFBC168E0CE01459642
:100CA0000E94C00582EF8093E8008D8987FF05C010
:100CB0009091E80090FFFCCF03C09EEF9093E80076
:100CC000982F907609F0C6C09E894F89588D2F893C
:100CD000F88C91110CC0803829F4809162058093C2
:100CE000F10002C01092F1001092F10045C1913064
:100CF00051F4811141C14130510509F03DC180914C
:100D000062058D7F0BC0933061F4811135C1413094
:100D1000510509F031C180916205826080936205BE
:100D20002BC1953049F48091E80080FFFCCF822FE1
:100D300080688093E30020C1963009F05EC00B8D7F
:100D40001C8D22E01092E900109266051092650554
:100D5000F21232C010926405109263050E94F705EA
:100D600099E0BE016F5F7F4FDB01E92F1D92EA958D
:100D7000E9F79983FA8291E09E8390EA98879AEF47
:100D800099872091650530916605275F3F4F3C8329
:100D90002B838D831092E9001092660510926505F1
:100DA000109364050093630549E050E080E00E94E1
:100DB00099050E94F705E0C0109364050093630550
:100DC0000E94E509DC0112960D911C911397011503
:100DD000110509F4BBC0D801ED91FC910480F581A7
:100DE000E02DBE016B5E7F4FC8010995009709F0A9
:100DF000C7C0F80100851185EACF973009F445C1D5
:100E0000983021F481E08093F100B6C0993009F068
:100E1000B3C0837009F039C1E4E6F2E081E031E06B
:100E200096E32081211109C08EE78093EA00109299
:100E3000EA008F8980936B059FC08093E90030930F
:100E4000EB0021912093EC009093ED008F5F8730B1
:100E500041F7EACF8B8D9C8D1092E90010926605C8
:100E6000109265059093640580936305898D8111C7
:100E700053C08E899D89913A49F4813209F005C1A8
:100E800047E050E064E071E080E0BBC0913209F0DF
:100E9000FCC0833269F48F89988DA0E0B0E0809324
:100EA000000190930101A0930201B093030164C07B
:100EB000803269F48091E80082FFFCCF67E084E033
:100EC00091E00E94C0058BEF8093E80055C082320C
:100ED00009F052C08F8980930B01EEEFFFE78591F7
:100EE00094918B3F9C4D19F0E0E0F8E002C0EEEFEA
:100EF000FAE08091040190910501A0910601B09162
:100F00000701803B9440A105B10509F09EC0809186
:100F10000B0180FF79C099C00E94E509FC010281A4
:100F200013810115110509F4B0C0D801ED91FC91B0
:100F30000190F081E02DBE016B5E7F4FC8010995E5
:100F400081111AC0F80100851185EBCFF1E0FF1681
:100F500009F44EC0F3E0FF1298C08F89882309F48A
:100F60004AC0823089F440E86BE08BE591E00E9452
:100F70006405882309F489C08EEF8093E80088C057
:100F800018161906CCF381C0813029F440E86BE0D3
:100F90008FE491E0ECCF833009F077C00E94E5093F
:100FA000DC011296ED90FC9013978E010F5F1F4F9E
:100FB0006801E114F10479F0D701ED91FC9106800C
:100FC000F781E02DB801C7010995080F111DF70140
:100FD000E084F184EECFD8011C92F601019000204C
:100FE000E9F73197BF016C197D0940E0C601BFCF19
:100FF0006DE371E002C069E371E0FB01449150E0F0
:1010000080E80E949905B8CFEE3F2AE0F20751F040
:10101000808191818737A7E79A0721F09093FF0A93
:101020008093FE0A87E797E7918380838091600031
:10103000809367059BE088E10FB6F894A8958093AC
:1010400060000FBE9093600097CF808191818737B9
:10105000974709F091CFA8958091600088618093AF
:1010600060008091670580936000EE3FBAE0FB0767
:1010700039F08091FE0A9091FF0A918380837CCFA2
:101080001092FF0A1092FE0A77CF81E28093EB0064
:101090006C960FB6F894DEBF0FBECDBFDF91CF9137
:1010A000FF91EF91BF91AF919F918F917F916F9140
:1010B0005F914F913F912F911F910F91FF90EF9072
:1010C000DF90CF900F900FBE0F901F9018950F9349
:1010D0001F93CF93DF93EC010E9421058C016BE8F5
:1010E00072E0CE010E942105800F911FDF91CF9108
:1010F0001F910F9108950E940C128F929F92AF92B0
:10110000BF92EF92FF920F931F93CF93DF93CDB7D0
:10111000DEB7A1970FB6F894DEBF0FBECDBF7C013E
:10112000FA01CB0119A2223008F42AE08E010F5DEA
:101130001F4F822E912CA12CB12CBF01A50194012F
:101140000E94C60FF901CA01015011096A3014F456
:10115000605D01C0695CD8016C93232B242B252B87
:1011600061F7B801C7010E942105A1960FB6F89456
:10117000DEBF0FBECDBFDF91CF911F910F91FF90CA
:10118000EF90BF90AF909F908F900895EF92FF9255
:101190000F931F93CF93DF938C01EB01109272009A
:1011A00080911806909119069927FC01EE55FE4F83
:1011B0002491FC01ED57FE4F8491882399F090E033
:1011C000880F991FFC01EB58FE4FA591B491FC01CB
:1011D000E959FE4F859194918FB7F894EC91E22BE9
:1011E000EC938FBF60E0809118060E947B0382E041
:1011F0008093C00081E08093C1001092C200809370
:10120000C3001092C4001092BF0082ED8093D10001
:101210001092BF0086E48093CF00780100E010E0D8
:101220000C171D07F1F0F701608171818091C000FA
:1012300000FF02C08F7701C080688093C0006115F5
:10124000710549F080E090E06530710581059105F8
:1012500010F00E9413040F5F1F4FF2E0EF0EF11C1D
:10126000DFCF8091C0008F778093C000DF91CF9156
:101270001F910F91FF90EF900895EF92FF920F93BF
:101280001F93CF93DF93FC0100811181FB01C0818B
:10129000D181F80181918F01882389F0082E000CFB
:1012A000990B0E9411127C018991082E000C990B58
:1012B0000E941112E816F90661F380E001C081E096
:1012C000DF91CF911F910F91FF90EF90089583E0F0
:1012D0008093E9008091F200882319F08AE38093DB
:1012E000E80008950F931F930E94BD036093740557
:1012F0007093750580937605909377058CE695E05D
:101300000E945D0397FF1FC00E94BD0300917405FA
:10131000109175052091760530917705DC01CB01A0
:10132000801B910BA20BB30B0091700510917105FE
:10133000209172053091730580179107A207B307BA
:10134000E8F28FEF9FEF1F910F91089520916B05A9
:10135000211103C08FEF9FEF08955FB7F89422E04B
:101360002093E9002091F20030E01216130614F4E5
:1013700021E030E0422FFC0184E6415038F028980B
:1013800080936A059091F1009193F7CF2115310573
:1013900021F08091F200882319F05FBFC901089500
:1013A0008BE68093E800F9CF2FB7F89483E0809321
:1013B000E9009091E800892F807295FF04C0909118
:1013C000F20080E4891B2FBF089580911E068111D1
:1013D0000DC082E080931A0684E080931B06109271
:1013E0001D0610921C0681E080931E068AE196E09D
:1013F00008950F931F93CF93DF93EC018881998118
:10140000009729F02A813B812617370788F48B0142
:101410006F5F7F4F0E944611009761F09983888328
:101420001B830A832C813D81232B11F4FC01108244
:1014300081E001C080E0DF91CF911F910F9108956D
:10144000EF92FF920F931F93CF93DF93EC011982DA
:1014500018821B821A821D821C826115710549F156
:101460008B01FB0101900020E9F731977F01E61A1B
:10147000F70AB7010E94F9092881398181110DC04D
:101480002115310519F0C9010E94BD101982188279
:101490001D821C821B821A820CC0FD82EC82B80164
:1014A000C901DF91CF911F910F91FF90EF900C94A4
:1014B0002212DF91CF911F910F91FF90EF9008952D
:1014C0001F920F920FB60F9211242F933F934F93B9
:1014D0005F936F937F938F939F93AF93BF93CF93BC
:1014E000EF93FF93C091E1008091E100837F8093AF
:1014F000E100C3FF0FC01092E90081E08093EB0090
:101500001092EC0082E38093ED0010926B0588E06E
:101510008093F000C2FF18C00E946709809169059E
:10152000882339F08091690581508093690588236B
:1015300089F180916A05882339F080916A0581508C
:1015400080936A05882341F1C4FF10C08091E200B6
:101550008E7E81608093E2008091E1008F7E809397
:10156000E100809168058E7E806111C0C0FF16C0C9
:101570008091E2008E7E80618093E2008091E100A4
:101580008E7E8093E100809168058E7E81608093DD
:10159000680504C05D9ACDCF289AD6CFFF91EF9110
:1015A000CF91BF91AF919F918F917F916F915F91FB
:1015B0004F913F912F910F900FBE0F901F90189554
:1015C000CF93DF93CDB7DEB7C754D1090FB6F894E8
:1015D000DEBF0FBECDBF789484B5826084BD84B574
:1015E000816084BD85B5826085BD85B5816085BD1E
:1015F00080916E00816080936E00109281008091D6
:10160000810082608093810080918100816080935D
:1016100081008091800081608093800080919100A2
:10162000826080939100809191008160809391000D
:10163000809190008160809390008091C1008460CF
:101640008093C1008091C10082608093C10080912D
:10165000C10081608093C1008091C300816080934C
:10166000C3008091C00082608093C0008091C2005E
:1016700081608093C20080917A00846080937A00B8
:1016800080917A00826080937A0080917A008160F4
:1016900080937A0080917A00806880937A0010921B
:1016A0006B0510926205109268058091D7008160E9
:1016B0008093D70080EA8093D80089B5806189BD86
:1016C00089B5826089BD09B400FEFDCF61E070E09C
:1016D00080E090E00E94A2018091D8008F7C806120
:1016E0008093D8008091E000807F8093E00080911B
:1016F000E1008E7E8093E1008DE08093E200559AB8
:10170000209A109200061092010610920206109282
:1017100003061092BE051092BF051092C0051092EC
:10172000C1050E94BD036B017C014B015C0128EBEC
:10173000820E2BE0921EA11CB11C0E94BD036C15F1
:101740007D058E059F0528F086169706A806B90622
:10175000A0F78CE695E09093FF058093FE050BE1E2
:1017600010E0F0900B016AE070E080E090E00E94F1
:10177000A201F1100AC00150110939F064E670E0CD
:1017800080E090E00E94A201ECCFE091FE05F09194
:10179000FF058FEF9FEF958784870E94BD036093BD
:1017A000BE057093BF058093C0059093C1056CE79B
:1017B00072E08091FE059091FF050E9421050E9434
:1017C000BD036B017C014B015C018AE0880E911C1A
:1017D000A11CB11C0E94BD036C157D058E059F05E3
:1017E00028F086169706A806B906A0F781E0809330
:1017F000D2058FEF9FEF9093790580937805109134
:101800000B016AE070E080E090E00E94A2011111FB
:1018100005C084EF91E00E94AA03F1CF6EE872E068
:101820008CE695E00E94670830E0232E30E0332EEE
:1018300044EF442E55245394612C712C0E94BD0317
:10184000672B682B692B41F40E94BD036230710540
:101850008105910508F408C10E94BD0300915E0551
:1018600010915F0520916005309161056017710747
:101870008207930740F460935E0570935F05809341
:1018800060059093610500915E0510915F052091C0
:101890006005309161056B017C01C01AD10AE20A32
:1018A000F30A970186010A3F11052105310508F465
:1018B000DBC060935E0570935F0580936005909335
:1018C00061054092CA055092CB056092CC0570929A
:1018D000CD051092CE051092CF051092D005109232
:1018E000D1058091C2059091C305A091C405B09126
:1018F000C5058093C6059093C705A093C805B0930E
:10190000C9050E94BD036093C2057093C30580930F
:10191000C4059093C5050E94BD036093BE057093F6
:10192000BF058093C0059093C1050E94BD036B0164
:101930007C0162EA72E08091FE059091FF050E94B1
:1019400021052AE041E050E060E070E08091FE0572
:101950009091FF050E947D0869EA72E08091FE0582
:101960009091FF050E9421052AE0B701A601809110
:10197000FE059091FF050E947D086BEA72E0809160
:10198000FE059091FF050E9421058091C20590916E
:10199000C305A091C405B091C505B701A601481BB8
:1019A000590B6A0B7B0B2AE08091FE059091FF0595
:1019B0000E947D086BEA72E08091FE059091FF0520
:1019C0000E9421054091C2055091C3056091C40554
:1019D0007091C5058091C6059091C705A091C80575
:1019E000B091C905481B590B6A0B7B0B2AE080910B
:1019F000FE059091FF050E947D086DEA72E08091DE
:101A0000FE059091FF050E9421050E94BD03AB01D8
:101A1000BC012AE08091FE059091FF050E947D089F
:101A20006FEA72E08091FE059091FF050E946708C1
:101A30000E94BD034B015C016B017C0125E0C20EDD
:101A4000D11CE11CF11C0E94BD03681579058A05B3
:101A50009B05C0F40E94BD036093C2057093C3054B
:101A60008093C4059093C5058CE695E00E94220101
:101A7000039774F08CE695E00E942201813091403A
:101A8000FCF006C0C616D706E806F906E0F6E2CF77
:101A90008CE695E00E9422018130914034F06AE5A5
:101AA00073E08CE695E00E94670888EE93E00E9460
:101AB000AA032114310409F4C1CE0E940000BECE55
:101AC0006DE872E0CE018F5B9F4F0E94200A0E945A
:101AD000720997FD27C08A33910521F189831A8203
:101AE00027960EAD1FAD27970F5F1F4FB801CE0190
:101AF0008F5B9F4F0E94F909882349F323962EADEF
:101B00003FAD239727968EAD9FAD2797BE016F5FA0
:101B10007F4F820F931F0E94221227961FAF0EAF96
:101B20002797D5CF2396CEACDFAC2397C114D10431
:101B300009F445C027960EAD1FAD27970115110575
:101B4000F1F176015701FFEFAF1ABF0AF70180816B
:101B5000082E000C990B0E94BA0F892B11F0750109
:101B6000F1CF015011090C0D1D1DF8018081082EC7
:101B7000000C990B0E94BA0F892B31F00E151F052E
:101B800018F001501109F1CF0F5F1F4FA8014E1936
:101B90005F0927965FAF4EAF2797CE14DF0420F47E
:101BA000B701C6010E9419122396EEADFFAD23972F
:101BB00027968EAD9FAD2797E80FF91F10821A82E6
:101BC00019821C821B821E821D8223960EAD1FADC0
:101BD000239701151105C9F02796EEACFFAC2797A6
:101BE000B701CE0101960E94F90929813A8181113C
:101BF0000FC02115310519F0C9010E94BD101A82CC
:101C000019821E821D821C821B8200E010E016C019
:101C1000FE82ED82B801C9010E942212F6CFE9814D
:101C2000FA81309789F410925D04EDE5F4E060816B
:101C30008CE695E00E940C010F5F1F4F8D819E8105
:101C40000817190760F303C0E00FF11FF0CF6CE82D
:101C500072E08CE695E00E94210589819A810E94BC
:101C6000BD108CE695E00E9422018C01892BC1F009
:101C70002EE5E22E24E0F22EC12CD12C0E94720916
:101C800097FD0DC08D37910551F0F70181937F01CC
:101C9000FFEFCF1ADF0A0C151D0581F701C0860181
:101CA000A8016EE574E08CE695E00E94AF02023078
:101CB00011054CF466EB72E08CE695E00E94670833
:101CC0000E946709F8C080915E048B3709F0EDC06F
:101CD00066ED72E0CE0101960E94200A27968EAD35
:101CE0009FAD27972D813E818217930761F4892B41
:101CF00061F0BE016F5F7F4FCE018F5B9F4F0E94EF
:101D00003D09F82E04C0F12C02C0FF24F394898110
:101D10009A810E94BD10FF20B1F18FE5C82E84E0AA
:101D2000D82EEE24E394F12CF60181916F018234D8
:101D3000ECF4E0FE19C0805328968FAF2897AE01CF
:101D4000495B5F4F61E070E0CE0101960E94DC01CB
:101D5000FC01808191819A83898360E270E0CE01E9
:101D600001960E94C60808C08C3231F06EED72E018
:101D70008CE695E00E946708FFEFEF1AFF0A0E1548
:101D80001F0591F698C06BE073E0CE0101960E94AA
:101D9000200A27968EAD9FAD27972D813E81821711
:101DA000930771F4892B51F0BE016F5F7F4FCE0115
:101DB0008F5B9F4F0E943D09F82E02C0FF24F394D1
:101DC00089819A810E94BD10FF2009F46BC0809127
:101DD0005F04082E000C990B90930506809304066F
:101DE00080916004082E000C990B90930706809355
:101DF000060680916104082E000C990B9093090649
:101E00008093080680916304082E000C990B909330
:101E10000B0680930A0680916404082E000C990B2F
:101E200090930D0680930C0680916604082E000C9A
:101E3000990B90930F0680930E0680916704082EED
:101E4000000C990B90931106809310068091690401
:101E5000082E000C990B9093130680931206809124
:101E60006A04082E000C990B9093150680931406B3
:101E70008DB79EB744970FB6F8949EBF0FBE8DBF27
:101E8000ADB7BEB7119684E1E4E0F6E001900D92A3
:101E90008A95E1F70E9450020FB6F894DEBF0FBE9C
:101EA000CDBF09C063E173E002C063E273E08CE67A
:101EB00095E00E94670823968EAD9FAD23970E9400
:101EC000BD10F3CDECE6F5E01382128288EE93E0CC
:101ED000A0E0B0E084839583A683B7838EE692E08A
:101EE000918380838FEF9FEF95878487ECEBF5E0FC
:101EF000168217821086118612861386148615861E
:101F000016861786108A118A128A138A148A158AED
:101F10008DE090E09093190680931806E4E0F6E0D7
:101F200089E090E0938B828BACE0B1E080811296E7
:101F30008C931297828113968C93139784811496B5
:101F40008C931497868115968C9315978085169699
:101F50008C931697828517968C931797848518967D
:101F60008C931897868519968C93199780891A9661
:101F70008C93089591110C94C30F803219F08950FD
:101F80008550C8F70895992788270895A1E21A2E49
:101F9000AA1BBB1BFD010DC0AA1FBB1FEE1FFF1F0D
:101FA000A217B307E407F50720F0A21BB30BE40B5D
:101FB000F50B661F771F881F991F1A9469F76095A4
:101FC0007095809590959B01AC01BD01CF0108955E
:101FD0002F923F924F925F926F927F928F929F9239
:101FE000AF92BF92CF92DF92EF92FF920F931F9327
:101FF000CF93DF93CDB7DEB7CA1BDB0B0FB6F894D8
:10200000DEBF0FBECDBF09942A88398848885F8417
:102010006E847D848C849B84AA84B984C884DF8088
:10202000EE80FD800C811B81AA81B981CE0FD11D6C
:102030000FB6F894DEBF0FBECDBFED010895EE0FD1
:10204000FF1F0590F491E02D09940F931F93CF93F8
:10205000DF938230910510F482E090E0E091280651
:10206000F091290620E030E0A0E0B0E0309719F1CF
:10207000408151810281138148175907C8F08417A4
:10208000950769F4109731F012960C9312971396F6
:102090001C9327C0009328061093290622C02115FF
:1020A000310519F04217530718F49A01BD01EF01E9
:1020B000DF01F801DBCF21153105F9F0281B390BC1
:1020C0002430310580F48A819B816115710521F0EE
:1020D000FB019383828304C0909329068093280692
:1020E000FE01329644C0FE01E20FF31F81939193EB
:1020F00022503109398328833AC020912606309135
:102100002706232B41F420911B0130911C013093B1
:102110002706209326062091190130911A012115D6
:10212000310541F42DB73EB740911D0150911E017C
:10213000241B350BE0912606F0912706E217F307E2
:10214000A0F42E1B3F0B2817390778F0AC014E5F27
:102150005F4F2417350748F04E0F5F1F5093270637
:10216000409326068193919302C0E0E0F0E0CF0116
:10217000DF91CF911F910F910895CF93DF93009737
:1021800009F481C0FC01329713821282A0912806C3
:10219000B0912906109781F420813181820F931F1D
:1021A00020912606309127062817390751F5F0931C
:1021B0002706E093260667C0ED0120E030E0CE1749
:1021C000DF0740F44A815B819E0141155105F1F022
:1021D000EA01F5CFD383C28340815181840F951FDB
:1021E000C817D90759F488819981840F951F0296E1
:1021F000918380838A819B8193838283211531051A
:1022000029F4F0932906E09328063DC0E901FB83F9
:10221000EA8349915991C40FD51FEC17FD0761F46A
:1022200080819181840F951F0296E90199838883AB
:10223000828193819B838A83E0E0F0E012968D9106
:102240009C911397009719F0FD01DC01F7CF8D9158
:102250009C9111979D012E5F3F4F820F931F2091FC
:102260002606309127062817390769F4309729F494
:10227000109229061092280602C013821282B0938F
:102280002706A0932606DF91CF910895A0E0B0E045
:10229000ECE4F1E10C94EC0FEC01009721F4CB019C
:1022A0000E942510B4C0FC01E60FF71F9C012250CC
:1022B0003109E217F30708F4A8C0D9010D911C9168
:1022C000119706171707B0F00530110508F49BC0E9
:1022D000C80104978617970708F495C002501109A2
:1022E000061B170B019311936D937C93CF010E94F2
:1022F000BD1089C05B01A01AB10A4C01800E911E6D
:10230000A0912806B0912906612C712CE12CF12CAA
:10231000109709F446C08D919C911197A815B905A5
:10232000B1F56C0142E0C40ED11CCA14DB0478F193
:102330004C018A189B08640142E0C40ED11C12961D
:10234000BC9012971396AC91B5E0CB16D10440F037
:10235000B282A38391828082D9016D937C9309C05C
:102360000E5F1F4F800F911FF90191838083EB2D2A
:10237000FA2FE114F10431F0D7011396FC93EE9398
:10238000129741C0F0932906E09328063CC06816D6
:10239000790608F43C017D0112960D90BC91A02DA8
:1023A000B7CF809126069091270688169906E1F40A
:1023B00066167706C8F48091190190911A0100976A
:1023C00041F48DB79EB740911D0150911E01841BB1
:1023D000950BE817F907C8F4F0932706E093260653
:1023E000F901718360830FC0CB010E9425107C012D
:1023F000009759F0A801BE010E941912CE010E9457
:10240000BD10C70104C0CE0102C080E090E0CDB78E
:10241000DEB7EEE00C94081081E090E0F8940C94A4
:1024200029129111089581548A5108F4805E855AC9
:102430000895FB01DC0102C001900D924150504013
:10244000D8F70895FB01DC0101900D920020E1F71F
:062450000895F894FFCF8F
:10245600FFFFFFFF00E10000000000001012000077
:1024660000000000000000120D00002A0680000196
:10247600010100010001000101010100010000014C
:10248600010100010001000101000001000000013E
:10249600010100010001000001000001010000012E
:1024A600010100010001000001000000010000011F
:1024B600010100010001000001000100010000010E
:1024C60001010001000100010101010100000001FC
:1024D60001010001000100000100010101000001ED
:1024E60001010001000100000100000000000001E0
:1024F60001010001000100000100000100000001CF
:1025060001010001000100010101000100000001BC
:1025160001010001000100010000000000000001AF
:10252600010100010001000000000001010000019E
:10253600010100010001000000000100010000018E
:10254600010100010001000000000000010000017F
:10255600010100010001000000000001000000016F
:10256600010100010001000000000100000000015F
:102576000101000100010000000000000000000150
:102586000101000100010001010001010000002F0E
:10259600021F020F02FF01EF01DF01CF01BF01AFF2
:1025A600019F018F017F016F015F014F013F012FE5
:1025B600011F0100C18081000000000000000C0125
:1025C600AF0235034E0222015D033903564D4450D6
:1025D600565F317C315F564D4450560D0A004952C4
:1025E6002D52656D6F746520436F6E6E65637465FD
:1025F6006400564D4450455F003A323A007C005F15
:10260600564D44504500436F6D6D616E64204172B6
:1026160067756D656E7420456D7074792C20416206
:102626006F7274656400434F4D4D414E4400496ED0
:1026360076616C696420436F6D6D616E6420466FD0
:10264600726D61742C20696E617070726F70726940
:1026560061746520636F6D6D617300534554544911
:102666004D4500496E76616C696420436F6D6D61FE
:102676006E6400496E76616C696420436F6D6D61AE
:102686006E642053657175656E63652C20666F7286
:102696006D617420697320636F6D6D616E643A7B42
:1026A600617267756D656E747D00496E7075742014
:1026B6006C6F6E676572207468616E2032353620E5
:1026C60063686172732C2049676E6F72696E672149
:0226D600000002
:1070000055C000006EC000006CC000006AC00000E7
:1070100068C0000066C0000064C0000062C00000DC
:1070200060C000005EC00000FCC400005AC0000048
:1070300058C0000056C0000054C0000052C00000FC
:1070400050C000005DC000004CC000004AC00000FD
:1070500048C0000046C0000044C0000042C000001C
:1070600040C000003EC000003CC000003AC000002C
:1070700038C0000036C0000034C0000032C000003C
:1070800030C000002EC000002CC000002AC000004C
:1070900028C0000026C0000024C0000022C000005C
:1070A00020C000001EC000001CC0000011241FBE34
:1070B000CFEFDAE0DEBFCDBF11E0A0E0B1E0E6E463
:1070C000FFE702C005900D92A63AB107D9F711E08B
:1070D000A6EAB1E001C01D92AF3BB107E1F74FD383
:1070E00030C78ECFF89410926F001092810081E02B
:1070F00085BF15BE47985D9A289A0C9400000895A4
:107100001F920F920FB60F9211242F938F939F937C
:10711000EF93FF9310928500109284008091A60156
:107120009091A701009741F001979093A701809358
:10713000A601892B09F45D9A8091A8019091A9017B
:10714000009741F001979093A9018093A801892BA2
:1071500009F4289A8091AC019091AD010196909329
:10716000AD018093AC01E0E0F0E0859194918F5FF8
:107170009F4F49F08091AA019091AB0101969093A5
:10718000AB018093AA01FF91EF919F918F912F9175
:107190000F900FBE0F901F90189584E08093E90028
:1071A0000DC08091E8008B778093E80003C08EB318
:1071B000882351F08091E80082FFF9CF8091E800A8
:1071C00085FFEFCF8091F1000895982F83E08093A1
:1071D000E9008091E80085FD0DC08091E8008E7780
:1071E0008093E80003C08EB3882369F08091E800A3
:1071F00080FFF9CF9093F1005D9884E690E0909342
:10720000A7018093A60108954F925F926F927F929B
:107210008F929F92AF92BF92CF92DF92EF92FF92A6
:107220000F931F93CF93DF9384E08093E9008091C5
:10723000E80082FF57C2289884E690E09093A90165
:107240008093A801AADF182F853481F48CE49DE196
:107250009093AB018093AA0107B600FCFDCFF9998A
:10726000FECF81E180935700E89503C0843519F47F
:1072700094DF8DE00DC28C34E1F38035D1F3843797
:1072800021F484E4A2DF80E003C2813611F489E5B1
:10729000FFC18134B1F481DF182F7FDF90E0880FC8
:1072A000991FAA2797FDA095BA2F312F330F20E001
:1072B000442737FD4095542F822B932BA42BB52BBD
:1072C000B8C1803711F483E5E3C1833549F4C0E0E8
:1072D000D1E089917ADF21E0C730D207D1F7D9C157
:1072E000863521F481E371DF80E3D2C1833731F445
:1072F00087E86BDF85E969DF8EE1CAC18536B9F4BD
:10730000E0E0F0E093E085E090935700E89507B661
:1073100000FCFDCF80935700E89507B600FCFDCF39
:10732000E058FF4FA0E7E030FA0771F7A2CF8237AD
:1073300039F4E1E0F0E089E0809357008491A8C13E
:10734000863439F4E0E0F0E089E0809357008491DE
:107350009FC18E3439F4E3E0F0E089E08093570078
:10736000849196C1813539F4E2E0F0E089E08093C0
:10737000570084918DC1823631F489E526DF80E0A3
:1073800024DF80E885C1823419F0873609F0E5C032
:107390001092AB011092AA0100DF082FFEDEF82E3A
:1073A000FCDE682E8554823008F071C1902F80E099
:1073B000CF2DD0E0C82BD92B10926F00173609F0D3
:1073C0004BC081E180935700E895DD24CC24C39421
:1073D0003FC0E090AF01F090B0010091B101109179
:1073E000B201B6E46B16D9F4ED2DF0E0EE29FF29D9
:1073F000E4918E2FEADEDD2081F082E090E0A0E0D3
:10740000B0E0E80EF91E0A1F1B1FE092AF01F092D8
:10741000B0010093B1011093B201DC2418C0D8016F
:10742000C701B695A7959795879575D5CEDE82E06D
:1074300090E0A0E0B0E0E80EF91E0A1F1B1FE092EA
:10744000AF01F092B0010093B1011093B201219706
:10745000209709F0BECF7DC08090AF019090B00121
:10746000A090B101B090B20196E4691609F05DC038
:1074700083E0F40180935700E89507B600FCFDCF48
:1074800054C0F6E46F1661F5772031F1E090AF015A
:10749000F090B0010091B1011091B2017EDED82EC2
:1074A000CC24852D90E08C299D29F7010C01409278
:1074B0005700E895112482E090E0A0E0B0E0E80EEB
:1074C000F91E0A1F1B1FE092AF01F092B00100935A
:1074D000B1011093B20102C060DE582E742423C0A3
:1074E000E090AF01F090B0010091B1011091B201B4
:1074F00016950795F794E79450DE682FC70113D5CA
:107500008091AF019091B001A091B101B091B20111
:107510000296A11DB11D8093AF019093B001A0937D
:10752000B101B093B201219704C0552477244424BB
:107530004394209709F0A5CF96E4691641F485E0BD
:10754000F40180935700E89507B600FCFDCF8DE06D
:107550003CDE82E080936F009CC0833471F4009124
:10756000AF011091B00119DE90E021E0F8010C01AB
:1075700020935700E89511247CCE833619F5E090CE
:10758000AF01F090B0010091B1011091B20105DEA0
:10759000F701E16090E021E00C0120935700E895AD
:1075A000112482E090E0A0E0B0E0E80EF91E0A1F8E
:1075B0001B1FE092AF01F092B0010093B101109354
:1075C000B20157CE8D3661F4E091AF01F091B00178
:1075D00085E080935700E89507B600FCFDCF49CEC3
:1075E000823551F4E091AF01F091B0010591149111
:1075F000812FEBDD802F4CC0843421F5E090AF016A
:10760000F090B0010091B1011091B201169507956B
:10761000F794E794C2DD682FC70185D48091AF014C
:107620009091B001A091B101B091B2010296A11D5B
:10763000B11D8093AF019093B001A093B101B093BD
:10764000B20117CE843609F5E090AF01F090B00199
:107650000091B1011091B201D801C701B695A7956B
:107660009795879558D4B1DD82E090E0A0E0B0E036
:10767000E80EF91E0A1F1B1FE092AF01F092B00145
:107680000093B1011093B20104C08B3111F08FE36C
:107690009CDD83E08093E9009091E8008091E80010
:1076A0008E778093E80095FF04C010C08EB38823C6
:1076B000C9F08091E80080FFF9CF8091E8008E77D3
:1076C0008093E80003C08EB3882361F08091E800C6
:1076D00080FFF9CF84E08093E9008091E8008B7708
:1076E0008093E800DF91CF911F910F91FF90EF9071
:1076F000DF90CF90BF90AF909F908F907F906F90D2
:107700005F904F9008959091B701892F8F778132C4
:1077100049F58091B8018032A1F0813219F5913A92
:1077200009F58091E800877F8093E8008CE091E084
:1077300067E070E027D28091E8008B778093E800C3
:107740000895913279F48091E800877F8093E80072
:107750008CE091E067E070E079D28091E8008E776C
:107760008093E800089582E061EC42E0D1D083E0AC
:1077700061E842E1CDD084E060E842E1C9C01F93F6
:10778000209100081092000844B714BE88E10FB69B
:10779000F89480936000109260000FBE80E8E0E0F3
:1077A000F0E00FB6F89480936100E09361000FBEA3
:1077B00031E035BF92E095BF3F9A209A559A809369
:1077C00061001092610047985D9A289A1092890092
:1077D0008AEF8093880090936F0083E0809381000C
:1077E000859194918F5F9F4F11F03093AE01942F4C
:1077F00041FF19C0809109012817A9F08093000862
:10780000789480911301882339F08091AC01909194
:10781000AD018F5E9240C8F310920008F89481E0A9
:10782000809313010CC090FF04C08091AE018823A7
:1078300051F493FF09C080910901281729F0809124
:10784000AE01882309F04EDCD4D078941092AB01BD
:107850001092AA011EEF20C0D7DC4BD38091AA0161
:107860009091AB0181549F4110F0109213018091CF
:10787000B3019091B40101969093B4018093B30148
:10788000292F97FF03C0512F591B252F220F28178F
:1078900010F4479801C0479A809113018823E1F6BC
:1078A0008091E00081608093E0001CDC80E090E04B
:1078B0001F910895FA01923049F0933061F09130B0
:1078C000F9F484E191E022E130E01EC086E291E02B
:1078D0002EE330E019C0882329F484E691E024E007
:1078E00030E012C0813029F488E691E022E230E0F5
:1078F0000BC0823029F48CE891E028E130E004C02C
:1079000080E090E020E030E091838083C901089519
:107910008093E9008091EB0081608093EB001092EE
:10792000ED006093EC004093ED008091EE00881F25
:107930008827881F08958091B70188238CF403C09D
:107940008EB38823B1F08091E80082FFF9CF809157
:10795000E8008B778093E80008958EB3882349F080
:107960008091E80080FFF9CF8091E8008E778093C6
:10797000E8000895EF92FF920F931F9345D04CD0EB
:1079800008ED10E0F80180818F7780838081806826
:10799000808380818F7D808319BC1EBA1092B501CF
:1079A00080EEE82EF12CF70180818B7F8083F80137
:1079B00080818160808380E060E042E0A9DFE1EEC9
:1079C000F0E080818E7F8083E2EEF0E08081816054
:1079D0008083808188608083F70180818E7F8083AF
:1079E000F8018081806180831F910F91FF90EF905B
:1079F0000895E7EDF0E08081816080838AE482BFB2
:107A000081E08093B601B6CFE8EDF0E080818E7F13
:107A100080831092E20008951092DA001092E10043
:107A200008951F920F920FB60F9211242F933F9338
:107A30004F935F936F937F938F939F93AF93BF9376
:107A4000EF93FF938091DA0080FF1BC08091D800F4
:107A500080FF17C08091DA008E7F8093DA008091DA
:107A6000D90080FF0BC080E189BD82E189BD09B4E6
:107A700000FEFDCF81E08EBB3BD203C019BC1EBA15
:107A800037D28091E10080FF17C08091E20080FF33
:107A900013C08091E2008E7F8093E2008091E2002B
:107AA00080618093E2008091D80080628093D8004A
:107AB00019BC85E08EBB1CD28091E10084FF2CC0F4
:107AC0008091E20084FF28C080E189BD82E189BD08
:107AD00009B400FEFDCF8091D8008F7D8093D8003F
:107AE0008091E1008F7E8093E1008091E2008F7EA3
:107AF0008093E2008091E20081608093E2008091B7
:107B0000B501882331F48091E30087FD02C081E054
:107B100001C084E08EBBECD18091E10083FF21C0E5
:107B20008091E20083FF1DC08091E100877F8093F8
:107B3000E10082E08EBB1092B5018091E1008E7F62
:107B40008093E1008091E2008E7F8093E20080913B
:107B5000E20080618093E20080E060E042E0D8DEF5
:107B6000C7D1FF91EF91BF91AF919F918F917F917D
:107B70006F915F914F913F912F910F900FBE0F909A
:107B80001F9018959C014091BD015091BE01461770
:107B9000570718F4F90190E044C06115710511F020
:107BA000AB01F8CF8091E8008E778093E80040E049
:107BB00050E0F0CF8EB3882309F444C0853009F437
:107BC00043C08091E80083FF02C081E00895809166
:107BD000E80082FD31C08091E80080FF22C08091E2
:107BE000F3009091F200782F60E0292F30E0262BEF
:107BF000372B07C081918093F100415050402F5F97
:107C00003F4F4115510519F02830310598F390E0A8
:107C10002830310509F491E08091E8008E77809357
:107C2000E8004115510531F6992321F605C08EB3C0
:107C3000882341F0853041F08091E80082FFF7CF42
:107C400080E0089582E0089583E008959C01611525
:107C5000710529F48091E8008B778093E800F901A1
:107C600026C08EB3882391F1853091F18091E80090
:107C700083FF02C081E008958091E80082FFF1CF88
:107C800006C08091F10081936150704059F02091BD
:107C9000F3008091F200322F20E090E0822B932BB2
:107CA000892B79F78091E8008B778093E800611544
:107CB0007105B9F605C08EB3882341F0853041F0D7
:107CC0008091E80080FFF7CF80E0089582E008957A
:107CD00083E008950F931F93DF93CF9300D0CDB728
:107CE000DEB7E7EBF1E08091F100819381E0EF3BBB
:107CF000F807C9F708DD8091E80083FFE4C08091B0
:107D0000B7019091B801953009F46DC0963040F4F8
:107D1000913081F1913070F0933009F0D4C02AC0D5
:107D2000983009F4A3C0993009F4B2C0963009F034
:107D3000CAC07CC0803809F4C6C0823809F0C3C00C
:107D40008091BB0187708093E9008091EB001092D5
:107D5000E9002091E800277F2093E80090E025E0EB
:107D6000969587952A95E1F781708093F10010929E
:107D7000F10087C0882319F0823009F0A4C08F7108
:107D8000823009F0A0C08091B901882331F520919B
:107D9000BB01277009F497C02093E9008091EB00A4
:107DA00080FF1BC0933021F48091EB00806213C0F0
:107DB0008091EB0080618093EB0081E090E002C055
:107DC000880F991F2A95E2F78093EA001092EA0043
:107DD0008091EB0088608093EB001092E900809125
:107DE000E800877F51C0882309F06DC01091B90168
:107DF0001F770FB7F8948091E800877F8093E800A1
:107E00009ADD8091E80080FFFCCF8091E3008078CC
:107E1000812B8093E30080688093E300112311F4A9
:107E200082E001C083E08EBB0FBF4DC0805882301E
:107E300008F049C08091B9019091BA016091BB01ED
:107E4000AE014F5F5F4F36DDBC01009709F43BC0C8
:107E50008091E800877F8093E80089819A8192DE93
:107E60008091E8008B778093E8002DC0803859F529
:107E70008091E800877F8093E8008091B50180932E
:107E8000F1008091E8008E778093E80054DD1BC0FC
:107E90008823C9F49091B9019230A8F48091E80048
:107EA000877F8093E8009093B50145DD8091B5010F
:107EB000882331F48091E30087FD02C081E001C096
:107EC00084E08EBB50DC8091E80083FF0AC0809183
:107ED000EB0080628093EB008091E800877F8093C5
:107EE000E8000F900F90CF91DF911F910F910895AF
:107EF00008951F938EB3882361F01091E9001092CA
:107F0000E9008091E80083FF01C0E4DE1770109360
:107F1000E9001F910895F999FECF92BD81BDF89AAD
:107F2000992780B50895262FF999FECF1FBA92BDE3
:107F300081BD20BD0FB6F894FA9AF99A0FBE01964A
:067F40000895F894FFCF44
:107F46004341544552494E41007700080000000065
:107F5600000008011201100102000008412341003F
:107F660001000201000109023E00020100803209FF
:107F7600040000010202010005240010010424028D
:107F8600040524060001070582030800FF09040111
:107F960000020A000000070504021000010705831D
:107FA6000210000104030904220341007200640068
:107FB600750069006E006F002000590075006E00A4
:107FC60020002000200020002000000018034100AF
:107FD60072006400750069006E006F0020004C009E
:067FE6004C004300000006
:040000030000700089
:00000001FF